S01D0000547261666669635F6C696768745F70726F6A6563742E737265637B
S11300000C942A000C9422030C943C000C943C00A5
S11300100C943C000C943C000C943C000C943C006C
S11300200C943C000C943C000C943C000C943C005C
S11300300C943C000C943C000C943C000C943C004C
S11300400C943C000C943C000C943C000C943C003C
S11300500C943C0011241FBECFE5D8E0DEBFCDBF19
S113006020E0A0E6B0E001C01D92A336B207E1F79C
S11300700E9412020C9480030C9400000E944F030F
S11300800E944B030E940E030E9479018AE691E0CC
S11300900E9418030895CF93C2E0C093600081E0EA
S11300A00E94C70181E00E94970185E090E00E94D0
S11300B0600380E00E94970181E00E94AF0181E02B
S11300C090E00E94600380E00E94AF0181E090E034
S11300D00E94600381E00E94AF0181E090E00E94F1
S11300E0600380E00E94AF0181E090E00E94600321
S11300F081E00E94AF0181E090E00E94600380E013
S11301000E94AF0181E0809360000E947F0185E03E
S113011090E00E94600380E00E947F01C093600031
S113012081E00E94AF0181E090E00E94600380E0E2
S11301300E94AF0181E090E00E94600381E00E9490
S1130140AF0181E090E00E94600380E00E94AF0173
S113015081E090E00E94600381E00E94AF0181E0B1
S113016090E00E94600380E00E94AF01CF91089567
S113017080E00E947F0181E00E94E00181E00E9412
S1130180AF0181E00E94F90181E090E00E946003E8
S113019080E00E94AF0180E00E94F90181E090E0DC
S11301A00E94600381E00E94AF0181E00E94F90196
S11301B081E090E00E94600380E00E94AF0180E053
S11301C00E94F90181E090E00E94600381E00E94B6
S11301D0AF0181E00E94F90181E090E00E94600398
S11301E080E00E94AF0180E00E94F90180E00E945B
S11301F0E00181E00E94C70181E00E9497010E9412
S11302004B00089580E00E94C70181E00E94E00154
S113021081E00E947F0185E090E00E94600380E01D
S11302200E94E00181E00E947F010E94B8000895CD
S113023081E00E94C70185E090E00E94600380E0B5
S11302400E94970180E00E94C70181E00E94AF01F3
S113025081E00E94F90181E090E00E94600380E067
S11302600E94AF0180E00E94F90181E090E00E94C9
S1130270600381E00E94AF0181E00E94F90181E006
S113028090E00E94600380E00E94AF0180E00E9441
S1130290F90181E090E00E94600381E00E94AF01D7
S11302A081E00E94F90181E090E00E94600380E017
S11302B00E94AF0180E00E94F90181E00E947F0169
S11302C081E00E94E00185E090E00E9460030E94CA
S11302D0B800089580916000813019F40E940201F1
S11302E00895823011F40E94180108950E944B0071
S11302F0089540E062E083E00E9417020895CF93DE
S1130300C82F41E060E080E00E941702C13031F460
S113031041E060E080E00E948B0207C0C11105C08B
S113032040E060E080E00E948B02CF910895CF937B
S1130330C82F41E062E080E00E941702C13031F42E
S113034041E062E080E00E948B0207C0C11105C059
S113035040E062E080E00E948B02CF910895CF9349
S1130360C82F41E061E080E00E941702C13031F4FF
S113037041E061E080E00E948B0207C0C11105C02A
S113038040E061E080E00E948B02CF9108958130CB
S113039051F441E060E00E94170241E060E081E036
S11303A00E948B02089581110AC041E060E081E05F
S11303B00E94170240E060E081E00E948B020895F1
S11303C0813051F441E062E00E94170241E062E0B2
S11303D081E00E948B02089581110AC041E062E02D
S11303E081E00E94170240E062E081E00E948B02FB
S11303F00895813051F441E061E00E94170241E028
S113040061E081E00E948B02089581110AC041E0FD
S113041061E081E00E94170240E061E081E00E9417
S11304208B0208950E943E000E947601FDCF683041
S113043008F06FC0411138C0813091F028F082304B
S1130440D9F0833029F165C02AB381E090E002C07D
S1130450880F991F6A95E2F7809582238ABB59C059
S113046027B381E090E002C0880F991F6A95E2F7F4
S11304708095822387BB4DC024B381E090E002C005
S1130480880F991F6A95E2F78095822384BB41C047
S113049021B381E090E002C0880F991F6A95E2F7CA
S11304A08095822381BB35C0413099F5813089F034
S11304B028F08230C9F0833011F12BC02AB381E0D7
S11304C090E002C0880F991F6A95E2F7822B8ABBDD
S11304D020C027B381E090E002C0880F991F6A957D
S11304E0E2F7822B87BB15C024B381E090E002C001
S11304F0880F991F6A95E2F7822B84BB0AC021B347
S113050081E090E002C0880F991F6A95E2F7822B80
S113051081BB80E00895683008F078C041113CC088
S1130520813099F028F08230E9F0833041F170C0D5
S11305302BB381E090E002C0880F991F6A95E2F71F
S1130540809582238BBB80E0089528B381E090E0FE
S113055002C0880F991F6A95E2F78095822388BBB1
S113056080E0089525B381E090E002C0880F991FD0
S11305706A95E2F78095822385BB80E0089522B3D3
S113058081E090E002C0880F991F6A95E2F7809598
S1130590822382BB80E008954130E1F5813091F0FF
S11305A028F08230D9F0833029F136C02BB381E0B2
S11305B090E002C0880F991F6A95E2F7822B8BBBEB
S11305C080E0089528B381E090E002C0880F991F6D
S11305D06A95E2F7822B88BB80E0089525B381E019
S11305E090E002C0880F991F6A95E2F7822B85BBC1
S11305F080E0089522B381E090E002C0880F991F43
S11306006A95E2F7822B82BB80E0089580E008952A
S113061081E0089580E0089581E0089585B78160C0
S113062085BF85B7826085BF8BB780648BBF089513
S1130630009731F0909362008093610080E0089508
S113064082E008951F920F920FB60F9211242F93F8
S11306503F934F935F936F937F938F939F93AF9346
S1130660BF93EF93FF93E0916100F09162003097A4
S113067009F00995FF91EF91BF91AF919F918F91EF
S11306807F916F915F914F913F912F910F900FBE8A
S11306900F901F9018958FB780688FBF089583B708
S11306A08F7B83BF83B7877F83BF12BE83B781608D
S11306B083BF83B78D7F83BF83B7846083BF08956F
S11306C0853071F48FEF82BF90E007C008B600FE5A
S11306D0FDCF88B7816088BF9F5F9431B8F30895D8
S11306E0813069F48FEF82BF90E007C008B600FE46
S11306F0FDCF88B7816088BF9F5F9430B8F30895B9
S1070700F894FFCF97
S9030000FC
